S113B6008E00B0867E97FACCB600DDFA86C1B710FC
S113B610398631B710308680B710048654B71028A5
S113B620C638F71009CC0508B7102BF7102D86FF84
S113B630B70007B700088655B7103A86AAB7103A7C
S113B640CC0000FD0002BDB727FC000E05FD000282
S113B650B60008261CFC00021A830BB82213FC0057
S113B66002CE000A02FF0000FC0002B30000FD004D
S113B670028602BDB7F1B60002F6000827028A402E
S113B680F6000627028A80B70000BDB7F1B60003B2
S113B690BB0000B70000B60003BDB7F1B61032B767
S113B6A00016BB0000B70000B60016BDB7F1B61017
S113B6B033B70017BB0000B70000B60017BDB7F1E1
S113B6C0B60000BDB7F1B600082610FC00021A83CC
S113B6D000BE241386FFB70008200CFC00021A8366
S113B6E0083425037F0008B600082707B610048A2B
S113B6F0042005B6100484FBB71004B61031B10061
S113B70007270A25057C000720037A0007B60007EF
S113B71081BE23057F0006200586FFB70006CE55AF
S113B720550926FD7EB6367F000B7F000C7F000D89
S113B7307F00107F000E7F000FCE000018CE0000A7
S113B7407F00130CBDB794F70013BDB7E0B6001328
S113B75004840FFD0014BDB794F70013BDB7E0B621
S113B760001304840FF30014FD0014BDB794F70014
S113B77013BDB7E0B6001304840FF30014FD0014E6
S113B780BDB794F70013BDB7E0B6001304840FF3FC
S113B79000142014B610048A80B71004B610048470
S113B7A07FB71004BDB7E039F3000B2505FD000B8E
S113B7B02007FD000B7C000D0C7C0010B6001081EE
S113B7C0FF2706CE00007EB744FC000BCE04000227
S113B7D0FF000BB6000DC63F3DF3000BFD000E3914
S113B7E0F61029F7102AF61029C58027F9F6102A31
S10FB7F039C640F5102E27F9B7102F3988
S9030000FC
